:100000000C942A000C9447000C9472020C94470044
:100010000C9447000C9447000C9447000C94470044
:100020000C9447000C9447000C9447000C94EA028F
:100030000C9447000C9447000C9447000C94470024
:100040000C9447000C9447000C9447000C94470014
:100050000C94470011241FBECFE5D8E0DEBFCDBF12
:1000600010E0A0E6B0E0E6EEFBE002C005900D92E5
:10007000AE3DB107D9F720E0AEEDB0E001C01D9272
:10008000AE3FB207E1F70E9423030C94F1050C94F4
:1000900000000E94040260E081E00E946D0185EA98
:1000A00090E00E94990166E081E00E946D0186EB7C
:1000B00090E00E9499018AE50E9418028DE48093E5
:1000C000E40083E58093E3008EE48093E2000895EA
:1000D0009C019091E4009D34D1F58091E2008E3432
:1000E000B1F52B353105D0F48091E300863479F5F4
:1000F0000E94040260E081E00E946D0185EA90E0C8
:100100000E94990166E081E00E946D0186EB90E01B
:100110000E94990183E58093E30008958091E300B4
:100120008634A9F00E94D10160E081E00E946D0157
:1001300085EA90E00E94990165E081E00E946D01EE
:100140008BEB90E00E94990186E48093E300089590
:100150009C019091E300933591F58091E2008E34FB
:1001600071F58091E4008D3439F484EB0E9418021B
:100170008CE48093E40008958C3459F43093E100CA
:100180002093E00080E00E94180282E58093E40062
:1001900008958235A1F43093DF002093DE00409172
:1001A000E0005091E1002417350708F48CE48093B7
:1001B000E2008AE50E9418028DE48093E40008952D
:1001C0009C019091E3009335B9F58091E4008D3462
:1001D00009F04FC08091E2008235B1F460E081E027
:1001E0000E946D0185EA90E00E94990166E081E03D
:1001F0000E946D0183EC90E00E9499010E94F3013E
:1002000082E58093E30008958C3499F560E081E005
:100210000E946D0185EA90E00E94990166E081E00C
:100220000E946D0189EC90E00E9499010E94E20118
:100230008CE48093E3000895923549F48091DE00C8
:100240009091DF0044972817390758F408959C349B
:1002500081F48091E0009091E100449728173907DC
:1002600040F00E94040283E58093E3008EE48093D3
:10027000E200089560E08BE00E9441038FE891E086
:100280000197F1F700C0000061E08BE00E9441039C
:100290008FE19EE40197F1F700C000000895CF932D
:1002A000C82F60E089E00E9441038BB38F708BBB45
:1002B0008BB39C2F907F892B8BBB0E943A018BB311
:1002C0008F708BBB2BB330E1C39FC0011124822BF5
:1002D0008BBB0E943A01CF910895811105C080E83F
:1002E000860F0E944F010895813021F480EC860F23
:1002F0000E944F010895CF93C82F61E089E00E94CA
:1003000041038BB38F708BBB8BB39C2F907F892B5A
:100310008BBB0E943A018BB38F708BBB2BB330E148
:10032000C39FC0011124822B8BBB0E943A01CF9145
:100330000895CF93DF93EC018881882331F02196D3
:100340000E947B0189918111FBCFDF91CF910895AC
:1003500060E08AE00E9441032FEF89EF90E0215096
:1003600080409040E1F700C0000083E30E944F010D
:100370008FE39FE10197F1F700C0000082E30E9444
:100380004F0188E20E944F018FE00E944F0181E0FF
:100390000E944F0186E00E944F0182E00E944F01BF
:1003A000089561E080E10E94410360E081E10E94E4
:1003B000410361E082E10E94410360E083E10E9429
:1003C0004103089561E080E10E94410360E081E122
:1003D0000E94410360E082E10E94410361E083E109
:1003E0000E944103089560E080E10E94410361E0C2
:1003F00081E10E94410361E082E10E94410360E0EB
:1004000083E10E944103089560E080E10E9441037E
:1004100060E081E10E94410360E082E10E944103CB
:1004200060E083E10E94410308950E9473050895EE
:1004300026E1829FC001112488519C4F0E9497059C
:100440008FE392E42FE0815090402040E1F700C01C
:100450000000089561E081E00E94C30481E00E94F1
:10046000B10480E690E00E94E6040E946A050895C7
:100470008091EA0081110EC061E088E10E94410391
:1004800085E08A95F1F760E088E10E94410381E010
:100490008093EA000895CF93DF93EC016AE080E057
:1004A0000E946D014AE064EF70E0CE010E94BC053D
:1004B000A4EFB0E00D900020E9F7119785E0EEEC95
:1004C000F0E001900D928A95E1F784EF90E00E94B0
:1004D00099018FE097E20197F1F700C00000DF91EA
:1004E000CF9108951F920F920FB60F9211242F9360
:1004F0003F934F935F936F937F938F939F93AF93AC
:10050000BF93CF93DF93EF93FF938091EA00813005
:1005100009F04DC08091E90081110DC012BE81E04B
:100520008093E9001092E5001092E6001092E70037
:100530001092E8003CC022B78091E5009091E6005F
:10054000A091E700B091E800BA2FA92F982F882733
:10055000BC01CD01620F711D811D911D22ED31E0A5
:1005600040E050E00E949A052093F0003093F100A3
:100570004093F2005093F300C9010E944B02C0EF78
:10058000D0E0888199810E946800888199810E94C9
:10059000A800888199810E94E0001092E5001092E5
:1005A000E6001092E7001092E8001092E900FF9137
:1005B000EF91DF91CF91BF91AF919F918F917F91FB
:1005C0006F915F914F913F912F910F900FBE0F90C0
:1005D0001F9018951F920F920FB60F9211242F9310
:1005E0008F939F93AF93BF938091E5009091E60026
:1005F000A091E700B091E8000196A11DB11D809384
:10060000E5009093E600A093E700B093E8008B3DEF
:100610009240A105B10568F012BE1092EA00109256
:10062000E9001092E5001092E6001092E7001092A7
:10063000E800BF91AF919F918F912F910F900FBEC6
:100640000F901F90189578940E94BF030E94A801F4
:1006500083ED90E00E9499018FE39CE90197F1F707
:1006600000C000000E9415020E9449000E942A0258
:100670000E9438028FE39CE90197F1F700C0000067
:10068000F7CF982F9770869586958695813019F1CA
:1006900030F08230E1F1833009F455C008956130C3
:1006A00061F44BB321E030E0B90102C0660F771F5F
:1006B0009A95E2F7CB01842B0CC02BB341E050E0BC
:1006C000BA0102C0660F771F9A95E2F7CB018095B9
:1006D00082238BBB0895613061F448B321E030E0A0
:1006E000B90102C0660F771F9A95E2F7CB01842B00
:1006F0000CC028B341E050E0BA0102C0660F771F7A
:100700009A95E2F7CB018095822388BB08956130EA
:1007100061F445B321E030E0B90102C0660F771FF4
:100720009A95E2F7CB01842B0CC025B341E050E051
:10073000BA0102C0660F771F9A95E2F7CB01809548
:10074000822385BB0895613061F442B321E030E03B
:10075000B90102C0660F771F9A95E2F7CB01842B8F
:100760000CC022B341E050E0BA0102C0660F771F0F
:100770009A95E2F7CB018095822382BB0895E5E646
:10078000F0E080E041E050E0282F2770982F969508
:10079000969596959130F1F138F0923009F470C049
:1007A000933009F4A3C0D7C0DF019081913059F490
:1007B0009AB3BA01022E02C0660F771F0A94E2F7BD
:1007C000692B6ABB0CC03AB3BA01022E02C0660F95
:1007D000771F0A94E2F7962F909593239ABB119670
:1007E0009C91913059F49BB3BA0102C0660F771FF8
:1007F0002A95E2F79B01292B2BBBADC03BB3BA0175
:1008000002C0660F771F2A95E2F7962F90959323E3
:100810009BBBA1C0DF019081913059F497B3BA011D
:10082000022E02C0660F771F0A94E2F7692B67BB9E
:100830000CC037B3BA01022E02C0660F771F0A94AC
:10084000E2F7962F9095932397BB11969C91913048
:1008500059F498B3BA0102C0660F771F2A95E2F7E0
:100860009B01292B28BB77C038B3BA0102C0660FA1
:10087000771F2A95E2F7962F9095932398BB6BC02C
:10088000DF019081913059F494B3BA01022E02C075
:10089000660F771F0A94E2F7692B64BB0CC034B370
:1008A000BA01022E02C0660F771F0A94E2F7962F54
:1008B0009095932394BB11969C91913059F495B3E4
:1008C000BA0102C0660F771F2A95E2F79B01292B18
:1008D00025BB41C035B3BA0102C0660F771F2A9508
:1008E000E2F7962F9095932395BB35C0DF01908159
:1008F000913059F491B3BA01022E02C0660F771FEE
:100900000A94E2F7692B61BB0CC031B3BA01022E25
:1009100002C0660F771F0A94E2F7962F90959323F3
:1009200091BB11969C91913059F492B3BA0102C0D7
:10093000660F771F2A95E2F79B01292B22BB0BC07C
:1009400032B3BA0102C0660F771F2A95E2F7962FDD
:100950009095932392BB8F5F3296803209F014CF2B
:100960000895813041F018F0823049F008958BB736
:1009700080648BBF08958BB780688BBF08958BB759
:1009800080628BBF0895813059F018F0823089F071
:10099000089585B78C7F85BF85B7682B65BF08959F
:1009A00085B7837F85BF85B7660F660F682B65BFE8
:1009B0000895623019F0633029F0089584B78F7B71
:1009C00084BF089584B7806484BF0895DC01EBEE92
:1009D000F0E012968C911297828311968C91119768
:1009E000818313969C91139793839C919083149683
:1009F0009C919483811111C083B7877F83BF8091BD
:100A0000ED00813021F489B7816089BF089581119B
:100A100060C089B78E7F89BF08958230E9F483B7BB
:100A2000886083BF83B78F7C83BF23B7EBEEF0E092
:100A3000938130E1939FC0011124822B83BF828177
:100A4000813021F489B7826089BF0895811141C046
:100A500089B78D7F89BF08958330E9F483B7877B99
:100A600083BF83B7886083BF83B7806483BF80916F
:100A7000EF00811107C083B78F7E83BF83B7806289
:100A800083BF0895813029F583B7806183BF83B721
:100A9000806283BF08958130E1F483B7877B83BF91
:100AA00083B7877F83BF83B7806483BF8091EF0064
:100AB000811107C083B78F7E83BF83B7806283BFF6
:100AC0000895813031F483B7806183BF83B780623A
:100AD00083BF089583B7887F83BF93B78091EB006E
:100AE000892B83BF08958FB58E7F8FBD8FB58260B0
:100AF0008FBD8EB588608EBD8EB580618EBD8FB581
:100B00008F7B8FBD8FB580688FBD80E49CE997BDDA
:100B100086BD80ED97E09BBD8ABD8EB58E7F8EBD74
:100B20008EB582608EBD8EB58B7F8EBD08959BBDC8
:100B30008ABD0895A1E21A2EAA1BBB1BFD010DC0A0
:100B4000AA1FBB1FEE1FFF1FA217B307E407F5077D
:100B500020F0A21BB30BE40BF50B661F771F881F59
:100B6000991F1A9469F760957095809590959B01EF
:100B7000AC01BD01CF010895BB274A3031F4992360
:100B800022F4BDE2909581959F4F0C94C805BB2738
:100B9000FB015527AA27880F991FAA1FA41710F039
:100BA000A41B83955051B9F7A05DAA3308F0A95D45
:100BB000A193009779F7B111B1931192CB010C94E5
:100BC000E105DC01FC01672F71917723E1F7329792
:100BD00004C07C916D9370836291AE17BF07C8F318
:060BE0000895F894FFCF18
:100BE60001000100000101010101010100010101F3
:100BF60001010101010101010101010101010101DF
:100C060000000001000100010001000100000000D9
:100C160000000000000101010101010000010001C6
:100C2600000100010020202020202020202020205C
:100C360020202020200053746F7000466F72776169
:100C46007264005269676874004C656674002063BC
:0E0C56006D200044697374616E6365200000B8
:00000001FF
